{
  "_format": "hh-sol-artifact-1",
  "contractName": "CharityManagement",
  "sourceName": "contracts/CharityDonations.sol",
  "abi": [
    {
      "anonymous": false,
      "inputs": [
        {
          "indexed": true,
          "internalType": "bytes32",
          "name": "charityId",
          "type": "bytes32"
        },
        {
          "indexed": false,
          "internalType": "uint256",
          "name": "amount",
          "type": "uint256"
        },
        {
          "indexed": true,
          "internalType": "address",
          "name": "donor",
          "type": "address"
        },
        {
          "indexed": false,
          "internalType": "string",
          "name": "message",
          "type": "string"
        }
      ],
      "name": "DonationReceived",
      "type": "event"
    },
    {
      "inputs": [
        {
          "internalType": "bytes32",
          "name": "charityId",
          "type": "bytes32"
        },
        {
          "internalType": "string",
          "name": "message",
          "type": "string"
        }
      ],
      "name": "donate",
      "outputs": [],
      "stateMutability": "payable",
      "type": "function"
    },
    {
      "inputs": [
        {
          "internalType": "bytes32",
          "name": "",
          "type": "bytes32"
        },
        {
          "internalType": "uint256",
          "name": "",
          "type": "uint256"
        }
      ],
      "name": "donations",
      "outputs": [
        {
          "internalType": "uint256",
          "name": "amount",
          "type": "uint256"
        },
        {
          "internalType": "address",
          "name": "donor",
          "type": "address"
        },
        {
          "internalType": "string",
          "name": "message",
          "type": "string"
        }
      ],
      "stateMutability": "view",
      "type": "function"
    },
    {
      "inputs": [
        {
          "internalType": "bytes32",
          "name": "charityId",
          "type": "bytes32"
        }
      ],
      "name": "getDonations",
      "outputs": [
        {
          "components": [
            {
              "internalType": "uint256",
              "name": "amount",
              "type": "uint256"
            },
            {
              "internalType": "address",
              "name": "donor",
              "type": "address"
            },
            {
              "internalType": "string",
              "name": "message",
              "type": "string"
            }
          ],
          "internalType": "struct CharityManagement.Donation[]",
          "name": "",
          "type": "tuple[]"
        }
      ],
      "stateMutability": "view",
      "type": "function"
    }
  ],
  "bytecode": "0x6080604052348015600f57600080fd5b50610d9e8061001f6000396000f3fe6080604052600436106100345760003560e01c8063946cfef914610039578063e374c35814610076578063f78c6b5414610092575b600080fd5b34801561004557600080fd5b50610060600480360381019061005b91906104da565b6100d1565b60405161006d9190610703565b60405180910390f35b610090600480360381019061008b919061085a565b610234565b005b34801561009e57600080fd5b506100b960048036038101906100b491906108e2565b6103a1565b6040516100c89392919061098a565b60405180910390f35b6060600080838152602001908152602001600020805480602002602001604051908101604052809291908181526020016000905b828210156102295783829060005260206000209060030201604051806060016040529081600082015481526020016001820160009054906101000a900473ffffffffffffffffffffffffffffffffffffffff1673ffffffffffffffffffffffffffffffffffffffff1673ffffffffffffffffffffffffffffffffffffffff168152602001600282018054610198906109f7565b80601f01602080910402602001604051908101604052809291908181526020018280546101c4906109f7565b80156102115780601f106101e657610100808354040283529160200191610211565b820191906000526020600020905b8154815290600101906020018083116101f457829003601f168201915b50505050508152505081526020019060010190610105565b505050509050919050565b60003411610277576040517f08c379a000000000000000000000000000000000000000000000000000000000815260040161026e90610a9a565b60405180910390fd5b60008083815260200190815260200160002060405180606001604052803481526020013373ffffffffffffffffffffffffffffffffffffffff1681526020018381525090806001815401808255809150506001900390600052602060002090600302016000909190919091506000820151816000015560208201518160010160006101000a81548173ffffffffffffffffffffffffffffffffffffffff021916908373ffffffffffffffffffffffffffffffffffffffff16021790555060408201518160020190816103499190610c66565b5050503373ffffffffffffffffffffffffffffffffffffffff16827f150fcc0c78aa1301910cafc124fd608e7d25ddde70817dd2de3ead6fdabc1f5d3484604051610395929190610d38565b60405180910390a35050565b600060205281600052604060002081815481106103bd57600080fd5b9060005260206000209060030201600091509150508060000154908060010160009054906101000a900473ffffffffffffffffffffffffffffffffffffffff169080600201805461040d906109f7565b80601f0160208091040260200160405190810160405280929190818152602001828054610439906109f7565b80156104865780601f1061045b57610100808354040283529160200191610486565b820191906000526020600020905b81548152906001019060200180831161046957829003601f168201915b5050505050905083565b6000604051905090565b600080fd5b600080fd5b6000819050919050565b6104b7816104a4565b81146104c257600080fd5b50565b6000813590506104d4816104ae565b92915050565b6000602082840312156104f0576104ef61049a565b5b60006104fe848285016104c5565b91505092915050565b600081519050919050565b600082825260208201905092915050565b6000819050602082019050919050565b6000819050919050565b61054681610533565b82525050565b600073ffffffffffffffffffffffffffffffffffffffff82169050919050565b60006105778261054c565b9050919050565b6105878161056c565b82525050565b600081519050919050565b600082825260208201905092915050565b60005b838110156105c75780820151818401526020810190506105ac565b60008484015250505050565b6000601f19601f8301169050919050565b60006105ef8261058d565b6105f98185610598565b93506106098185602086016105a9565b610612816105d3565b840191505092915050565b6000606083016000830151610635600086018261053d565b506020830151610648602086018261057e565b506040830151848203604086015261066082826105e4565b9150508091505092915050565b6000610679838361061d565b905092915050565b6000602082019050919050565b600061069982610507565b6106a38185610512565b9350836020820285016106b585610523565b8060005b858110156106f157848403895281516106d2858261066d565b94506106dd83610681565b925060208a019950506001810190506106b9565b50829750879550505050505092915050565b6000602082019050818103600083015261071d818461068e565b905092915050565b600080fd5b600080fd5b7f4e487b7100000000000000000000000000000000000000000000000000000000600052604160045260246000fd5b610767826105d3565b810181811067ffffffffffffffff821117156107865761078561072f565b5b80604052505050565b6000610799610490565b90506107a5828261075e565b919050565b600067ffffffffffffffff8211156107c5576107c461072f565b5b6107ce826105d3565b9050602081019050919050565b82818337600083830152505050565b60006107fd6107f8846107aa565b61078f565b9050828152602081018484840111156108195761081861072a565b5b6108248482856107db565b509392505050565b600082601f83011261084157610840610725565b5b81356108518482602086016107ea565b91505092915050565b600080604083850312156108715761087061049a565b5b600061087f858286016104c5565b925050602083013567ffffffffffffffff8111156108a05761089f61049f565b5b6108ac8582860161082c565b9150509250929050565b6108bf81610533565b81146108ca57600080fd5b50565b6000813590506108dc816108b6565b92915050565b600080604083850312156108f9576108f861049a565b5b6000610907858286016104c5565b9250506020610918858286016108cd565b9150509250929050565b61092b81610533565b82525050565b61093a8161056c565b82525050565b600082825260208201905092915050565b600061095c8261058d565b6109668185610940565b93506109768185602086016105a9565b61097f816105d3565b840191505092915050565b600060608201905061099f6000830186610922565b6109ac6020830185610931565b81810360408301526109be8184610951565b9050949350505050565b7f4e487b7100000000000000000000000000000000000000000000000000000000600052602260045260246000fd5b60006002820490506001821680610a0f57607f821691505b602082108103610a2257610a216109c8565b5b50919050565b7f446f6e6174696f6e206d7573742062652067726561746572207468616e207a6560008201527f726f000000000000000000000000000000000000000000000000000000000000602082015250565b6000610a84602283610940565b9150610a8f82610a28565b604082019050919050565b60006020820190508181036000830152610ab381610a77565b9050919050565b60008190508160005260206000209050919050565b60006020601f8301049050919050565b600082821b905092915050565b600060088302610b1c7fffffffffffffffffffffffffffffffffffffffffffffffffffffffffffffffff82610adf565b610b268683610adf565b95508019841693508086168417925050509392505050565b6000819050919050565b6000610b63610b5e610b5984610533565b610b3e565b610533565b9050919050565b6000819050919050565b610b7d83610b48565b610b91610b8982610b6a565b848454610aec565b825550505050565b600090565b610ba6610b99565b610bb1818484610b74565b505050565b5b81811015610bd557610bca600082610b9e565b600181019050610bb7565b5050565b601f821115610c1a57610beb81610aba565b610bf484610acf565b81016020851015610c03578190505b610c17610c0f85610acf565b830182610bb6565b50505b505050565b600082821c905092915050565b6000610c3d60001984600802610c1f565b1980831691505092915050565b6000610c568383610c2c565b9150826002028217905092915050565b610c6f8261058d565b67ffffffffffffffff811115610c8857610c8761072f565b5b610c9282546109f7565b610c9d828285610bd9565b600060209050601f831160018114610cd05760008415610cbe578287015190505b610cc88582610c4a565b865550610d30565b601f198416610cde86610aba565b60005b82811015610d0657848901518255600182019150602085019450602081019050610ce1565b86831015610d235784890151610d1f601f891682610c2c565b8355505b6001600288020188555050505b505050505050565b6000604082019050610d4d6000830185610922565b8181036020830152610d5f8184610951565b9050939250505056fea26469706673582212201230b4817a062b9b4de51dafc97693bebd2d481226e18025787f394bd263f3b364736f6c634300081a0033",
  "linkReferences": {},
  "deployedLinkReferences": {}
}